:100000000C9429010C9451010C9451010C94510150
:100010000C9451010C948E010C9451010C945101DB
:100020000C9451010C9451010C9451010C94510108
:100030000C9451010C9451010C9451010C945101F8
:100040000C94660E0C9451010C94A4110C94D611CE
:100050000C9451010C9451010C9451010C945101D8
:100060000C94390D0C94510100010203040506079C
:100070000B0AFC0810FC00FC00FC948409FC2424FE
:100080003C00FC8484FC0009FC80F080FC0004FC43
:10009000040009DC9496F500FC2464BC0009FC848F
:1000A00084CC00C4A4948C000AFC24243C00FC00F2
:1000B000FC24FC09DC9494F400FC8484FC00090713
:1000C000050700FFFF818181000605FF8181FFFF99
:1000D000040402FFFF0005F989898F8F0581898952
:1000E000FFFF051F1010FEFE058F8989F9F905FF36
:1000F0008989F9F905010101FFFF05FF8989FFFFE2
:10010000059F9191FFFF0605CF898989FB05FF892E
:1001100089810005FF818181000605FF020402FF3D
:100120000500FF00000005FF040810FF0605CF8949
:100130008989FB05FC121112FC050101FF01010573
:1001400000FF00000006057E8181FF7E050402FF9E
:10015000FF0005F189898F8605818989FF76051F52
:100160001010FEFE058F8989F971057E8989F97065
:100170000501C1F13F0F05768989FF76050E919142
:10018000FF7E0403FC84FC031008FC03F4949C032E
:100190008494FC033C20F8039C94F403FC94F40343
:1001A00004E41C03FC94FC03BCA4FC07067EFF8152
:1001B00081FF7E060082FFFF800006C2E3B1998FB7
:1001C000860642C38989FF7606383C2623FFFF0650
:1001D0004FCF8989F971067EFF8989FB720601017B
:1001E000F1F90F070676FF8989FF76064EDF9191B8
:1001F000FF7E000000080002010000030407000069
:1002000000000000000001020408102040800102EC
:10021000040810200102040810200404040404044B
:1002200004040202020202020303030303030000A8
:1002300000002300260029000000000025002800FF
:100240002B0000000000240027002A005E07570C46
:10025000061211241FBECFEFD8E0DEBFCDBF11E0E4
:10026000A0E0B1E0EEE0F9E202C005900D92AA38FC
:10027000B107D9F723E0AAE8B1E001C01D92A43884
:10028000B207E1F712E0C2E5D2E004C02297FE0116
:100290000E948114CC34D107C9F70E944A120C94F1
:1002A00085140C940000EF92FF921F93CF93DF937D
:1002B0001F92CDB7DEB77C01162F60E0812F7983C6
:1002C0000E94880FF70110837981718380E8809301
:1002D0000001E12FF72FE830F105C8F4E859FF4F8E
:1002E000E49120916D0081E090E0A0E0B0E004C0D6
:1002F000880F991FAA1FBB1FEA95D2F7822B809304
:100300006D00DA9A809168008460809368000F9095
:10031000DF91CF911F91FF90EF9008951F920F9260
:100320000FB60F9211240F931F932F933F934F9368
:100330005F936F937F938F939F93AF93BF93EF934D
:10034000FF930E94B00E0091990110919A012091A3
:100350009B0130919C01601B710B820B930B6F30E2
:1003600071058105910558F40E94B00E60939901C2
:1003700070939A0180939B0190939C01DEC00E9430
:10038000BC0E6093900170939101809392019093C1
:10039000930180918F01823009F4CFC081E0809376
:1003A0008F0180919801811116C0809190019091E8
:1003B0009101A0919201B091930180939401909347
:1003C0009501A0939601B0939701809198018F5F5A
:1003D00080939801B2C04091900150919101609139
:1003E0009201709193018091940190919501A09157
:1003F0009601B0919701481B590B49392AE35207DE
:1004000020F082E080938F0198C080919801813024
:1004100021F450938D0140938C018091980182309A
:1004200021F450938B0140938A018091980183308D
:1004300008F46EC08091980180FF2BC080918C01E0
:1004400090918D018417950728F49A01281B390B88
:10045000C90102C0841B950B20910001893C9105C4
:1004600070F0E0918E01F0E0A0918E01B0E0A15714
:10047000BE4F1E969C919227E157FE4F9687822F82
:1004800090E0959587958093000150938D0140935E
:100490008C018091980180FD3BC080918A019091F0
:1004A0008B018417950728F49A01281B390BC90181
:1004B00002C0841B950B20910001893C910570F0CE
:1004C000E0918E01F0E0A0918E01B0E0A157BE4F07
:1004D0001E969C919227E157FE4F9687822F90E0BF
:1004E000959587958093000150938B0140938A01E5
:1004F000892B71F480E88093000180918E018F5FD9
:1005000080938E0180918E01863011F410928E01BD
:10051000809198018F5F80939801809190019091D4
:100520009101A0919201B0919301809394019093D5
:100530009501A0939601B0939701FF91EF91BF9120
:10054000AF919F918F917F916F915F914F913F916B
:100550002F911F910F910F900FBE0F901F90189524
:10056000CF92DF92EF92FF92F8940E94BC0EC0905F
:100570009401D0909501E0909601F0909701209120
:100580008F01222349F1DC01CB018C199D09AE09B1
:10059000BF0988399A43A105B105F0F082E0809344
:1005A0008F017894809198018A30C8F410929D014F
:1005B00010929E0110929F011092A0011092A10131
:1005C0001092A2011092980110928E0180E88093FF
:1005D0000001F89410928F01789480E002C080911D
:1005E0009801FF90EF90DF90CF900895CF93DF9325
:1005F00000D0CDB7DEB769837A830E94B0026981EB
:100600007A81882329F1FB0180E090E0DC01A15789
:10061000BE4F1E962C911E9721931E961C920196FA
:100620008630910599F7F8940E94B00E6093990175
:1006300070939A0180939B0190939C011092980172
:1006400010928F0110928E0180E8809300017894BF
:100650000F900F90DF91CF910895DC01ED91FC9107
:100660000190F081E02D0994AC0124E05595479567
:100670002A95E1F76AE0649F9001659F300D11248F
:100680008F709927820F931F08956AE070E00E948F
:10069000351434E0660F771F3A95E1F7860F971F00
:1006A000089568E670E08EE192E00E943F0C60E001
:1006B00070E08EE192E00E942D0380911C029091E7
:1006C0001D020E944503BC018EE192E00E942D03B1
:1006D00080916401909165010E944503BC018EE107
:1006E00092E00E942D0380916601909167010E9423
:1006F0004503BC018EE192E00E942D038EE192E061
:100700000C94540C0F931F93CF93DF93082F162F45
:1007100060E08AE00E94C10FC4E0D0E0202F41E0F9
:100720006BE08CE00E942010212F41E06BE08CE018
:100730000E942010219791F761E08AE0DF91CF912C
:100740001F910F910C94C10F3F924F925F926F9245
:100750007F928F929F92AF92BF92CF92DF92EF9251
:10076000FF920F931F93CF93DF93CDB7DEB76097C0
:100770000FB6F894DEBF0FBECDBF80E090E09C01C5
:10078000295F3F4FA9014C505E4F5E874D87F901AD
:10079000E453FE4F3080DA014C9030FA47F86C0198
:1007A000B6E0CB0ED11CF601EC50FE4FFA83E98384
:1007B00031FA222720F9508020FB57F87C01F5E020
:1007C000EF0EF11C97012C503E4F3C832B8332FAE5
:1007D000222720F9AB81BC816C9020FB67F88C014B
:1007E0000C5F1F4FF801EC50FE4FFE83ED8333FA90
:1007F000222720F9708020FB77F8BC016D5F7F4FC6
:100800009B012C503E4F38872F8334FA222720F942
:10081000AF81B8858C9020FB87F8FC013296FC876D
:10082000EB87EC50FE4FFA87E98735FA222720F94B
:10083000908020FB97F89C012F5F3F4FA9014C50FF
:100840005E4F588B4F8736FAEE27E0F9DA01AC900D
:10085000E0FBA7F8FC01EC50FE4F37FA332430F8E8
:10086000B08030FAB7F8A60144535E4FDA01DC904D
:10087000D0FA46F8D1FACC24C0F8C0FA56F8D2FA29
:10088000CC24C0F8C0FA66F8D3FACC24C0F8C0FA79
:1008900076F8D4FACC24C0F8C0FA86F8D5FACC247D
:1008A000C0F8C0FA96F8D6FACC24C0F8C0FAA6F878
:1008B000D7FADD24D0F8D0FAB6F8A70144535E4F3A
:1008C000DA01FC90F0FA45F8F1FAEE24E0F8E0FAEB
:1008D00055F8F2FAEE24E0F8E0FA65F8F3FAEE24BF
:1008E000E0F8E0FA75F8F4FAEE24E0F8E0FA85F8BA
:1008F000F5FAEE24E0F8E0FA95F8F6FAEE24E0F8DE
:10090000E0FAA5F8F7FAFF24F0F8F0FAB5F8045386
:100910001E4FD8011C9110FB44F811FB002700F971
:1009200000FB54F812FB002700F900FB64F813FBEE
:10093000002700F900FB74F814FB002700F900FB06
:1009400084F815FB002700F900FB94F816FB00273C
:1009500000F900FBA4F817FB112710F910FBB4F8FD
:1009600064537E4FDB016C9160FB43F861FB77279A
:1009700070F970FB53F862FB772770F970FB63F82E
:1009800063FB772770F970FB73F864FB772770F9C6
:1009900070FB83F865FB772770F970FB93F866FBB3
:1009A000772770F970FBA3F867FB662760F960FB97
:1009B000B3F84B855C8544535E4FDA014C9140FBA4
:1009C00042F841FB552750F950FB52F842FB55279E
:1009D00050F950FB62F843FB552750F950FB72F871
:1009E00044FB552750F950FB82F845FB552750F939
:1009F00050FB92F846FB552750F950FBA2F847FBF5
:100A0000442740F940FBB2F824533E4FD9012C91C2
:100A100020FB41F821FB332730F930FB51F822FB52
:100A2000332730F930FB61F823FB332730F930FBF3
:100A300071F824FB332730F930FB81F825FB33278D
:100A400030F930FB91F826FB332730F930FBA1F861
:100A500027FB222720F920FBB1F89C0124533E4FAD
:100A6000D9012C9120FB40F8AD85BE854C9221FB2D
:100A7000332730F930FB50F8A981BA815C9222FB10
:100A8000332730F930FB60F8AB81BC816C9223FBDB
:100A9000332730F930FB70F8AD81BE817C9224FBA6
:100AA000332730F930FB80F8AF81B8858C9225FB75
:100AB000332730F930FB90F8A985BA859C9226FB44
:100AC000332730F930FBA0F8AF85B889AC9227FB0B
:100AD000222720F920FBB0F8B082089680329105D9
:100AE00009F04DCE60960FB6F894DEBF0FBECDBFB5
:100AF000DF91CF911F910F91FF90EF90DF90CF90FA
:100B0000BF90AF909F908F907F906F905F904F902D
:100B10003F900895EF92FF920F931F93CF93DF932F
:100B20000E94A403C1E0D0E060E08AE00E94C10F0F
:100B300000E010E0CE018D509E4F7C012C2F41E053
:100B40006BE08CE00E942010F701E00FF11F208D78
:100B500041E06BE08CE00E94201008501109003E3B
:100B60009FEF190759F761E08AE00E94C10F2196B3
:100B7000C930D105C9F6DF91CF911F910F91FF9038
:100B8000EF900895ECECF1E0119281E0EC3EF80773
:100B9000D9F7089561E08CE00E94880F61E08BE056
:100BA0000E94880F61E08AE00E94880F61E08AE07D
:100BB0000E94C10F60E08FE00E94820367E08BE03B
:100BC0000E94820360E089E00E94820361E08AE083
:100BD0000E94820360E08CE00E9482030E94C205B2
:100BE0000C948A05CF93DF93FA012491382F3203B6
:100BF000C0011124FC013196E40FF51FE491AE2FE2
:100C0000B0E09B01461B570B4E5F5F4F480F591FCB
:100C1000C901861B970B8A179B0774F42032310594
:100C200040F4FA01E20FF31FE491E901C453DE4FEF
:100C3000E8832F5F3F4FECCFDF91CF91089588E09D
:100C40000E94F70F892B21F480910101813069F016
:100C500088E00E94F70F019769F4809101018111EA
:100C600009C081E08093010105C01092010181E07B
:100C700090E0089580E090E00895CF934AE151E03C
:100C800080E090E0E4ECF1E020E030E061E0C19150
:100C9000DA01A20FB31F7C91C71360E02F5F3F4FB3
:100CA00026303105A1F7613039F001964A5F5F4F78
:100CB0008A30910539F780E0CF910895BF92CF92A5
:100CC000DF92EF92FF920F931F93CF93DF93C09029
:100CD000AF01D090B001E090B101F090B20120E0FE
:100CE00030E0A901C701B6010E94CE1318160CF01E
:100CF00044C020E030E046EC52E4C701B6010E9457
:100D0000E71287FF3AC0C701B6010E94EB128B01C0
:100D10009C01CB016AE070E00E943514EB01B82E13
:100D2000B801882777FD8095982F0E941E139B019C
:100D3000AC01C701B6010E94821220E030E040E21F
:100D400051E40E94D2130E94EB12162F209739F023
:100D500049EC50E062E070E08C2F0E94F20549EC13
:100D600050E068E070E08B2D0E94F20549EC50E005
:100D700060E170E0812F0E94F20580E88093DA0143
:100D800040E750E066E170E087E0DF91CF911F918E
:100D90000F91FF90EF90DF90CF90BF900C94F205F1
:100DA0008091BF019091C0011816190664F4823039
:100DB000910519F461E070E002C062E070E04BEA76
:100DC00051E00E94F2054BEA51E068E070E080914A
:100DD000BD010E94F2054BEA51E061E170E08091B3
:100DE000BB010E94F2054BEA51E068E170E080919E
:100DF000B9010E94F2058091B3019091B401892B51
:100E000011F084E201C080E08093DB0108958091BD
:100E1000BF019091C0011816190634F445E451E061
:100E200060E070E00E94F2058091BF019091C001E6
:100E3000029719F466E070E002C065E070E045E4F6
:100E400051E08091BD010E94F20545E451E06DE062
:100E500070E08091BB010E94F20545E451E063E13E
:100E600070E08091B9010E94F20542E851E069E129
:100E700070E08091B7010E94F20542E851E06DE117
:100E800070E08091B5010E94F2058091B3019091CC
:100E9000B401892B11F024E201C020E080916601A9
:100EA00090916701449719F48CE090E002C08BE0C8
:100EB00090E0FC01E453FE4F2083089564E070E06D
:100EC00083EA91E00C94530168E670E08EE192E0D1
:100ED0000E943F0C60E070E08EE192E00E942D03E2
:100EE0008EE192E00E94540C47E050E068E670E02A
:100EF0008EE192E00E94320C8EE192E00E94840B1F
:100F0000892BD1F38EE192E00E948C0B8F77992789
:100F10000E94340390931D0280931C028EE192E0A4
:100F20000E948C0B8F7799270E9434039093650160
:100F3000809364018EE192E00E948C0B8F7399275D
:100F40000E94340390936701809366018EE192E0E2
:100F50000E948C0B877099270E94340390935D0147
:100F600080935C018EE192E00E948C0B8F73992735
:100F70000E94340390935F0180935E018EE192E0C2
:100F80000E948C0B8F7399270E9434039093610108
:100F9000809360018EE192E00E948C0B99270E9461
:100FA00034038053984F90936301809362018EE1E4
:100FB00092E00C94540CCF92DF92EF92FF921F9329
:100FC000CF93DF9368E670E08EE192E00E943F0CE1
:100FD00061E170E08EE192E00E942D038EE192E0EB
:100FE0000E94540C42E050E068E670E08EE192E02E
:100FF0000E94320C8EE192E00E948C0B182F8EE141
:1010000092E00E948C0BEC01612F70E080E090E098
:101010000E941C136B017C01BE0146E0759567952B
:101020004A95E1F7882777FD8095982F0E941E1337
:1010300020E030E040E85EE30E94D2139B01AC0167
:10104000C701B6010E948312DF91CF911F91FF90DB
:10105000EF90DF90CF90089526E040E855E260E001
:1010600070E087EE92E00E94421162E088E00E9408
:10107000880F60E08FE00E94880F0E94CA050E94DE
:10108000C2050E948A0561E08CE00E94820363E051
:101090008AE00E9482038EE192E00E941B0C0E9473
:1010A000DB076093AF017093B0018093B10190931F
:1010B000B2010E94B00E6093A7017093A8018093C3
:1010C000A9019093AA0108950F931F93CF93DF93E3
:1010D0000E94B00E6093AB017093AC018093AD01A0
:1010E0009093AE010E946407C0916601D0916701A0
:1010F0002AE030E0CE01B9010E9435147093C0019E
:101100006093BF019093BE018093BD010091640183
:1011100010916501C801B9010E9435147093BC019A
:101120006093BB019093BA018093B901E0911C02D6
:10113000F0911D02CF01B9010E9435147093B801DE
:101140006093B7019093B6018093B501CD2B51F414
:10115000012B41F4359731F410921D0210921C02BC
:101160000E9451038091CA019091CB01019668E2DF
:1011700070E00E9435149093CB018093CA01409790
:101180003CF481E090E09093B4018093B30104C0FB
:101190001092B4011092B3010E94C2050E941F0672
:1011A000892B69F08091A5019091A601019663E0D9
:1011B00070E00E9435149093A6018093A501809160
:1011C000A5019091A601892B11F40E940707809137
:1011D000A5019091A601019711F40E945E068091ED
:1011E000A5019091A601029711F40E94D0068FE00C
:1011F0000E94420F8B38924014F060E001C063E01F
:101200008AE00E9482030E948A050E94B00E00912B
:10121000AB011091AC012091AD013091AE01601B8A
:10122000710B820B930B693171058105910568F390
:1012300083EA91E00E94B002882309F460C264EC62
:1012400071E083EA91E00E94F602E4E1F1E0A4ECAF
:10125000B1E021E030E080E090E04D915191451700
:1012600071F0EC01C25FDE4F5881451741F0EC018F
:10127000C85FDE4F5881451711F020E030E001963D
:101280008630910551F73093C3012093C20121307C
:10129000310509F034C280915A0190915B01A4E1BB
:1012A000B1E0E4ECF1E031912D91321711F080E0E2
:1012B00090E021E0EA3CF207B1F790935B01809364
:1012C0005A01019751F50E94C2054CE251E060E0DD
:1012D00070E080E00E94F2054CE251E066E070E0D0
:1012E00081E00E94F2054CE251E06BE070E082E0A8
:1012F0000E94F2054CE251E060E170E083E00E9460
:10130000F20584E28093DF0145E451E06BE170E097
:1013100080E00E94F2050E948A05CAE0D0E0809138
:101320005A0190915B01019709F077C083EA91E03F
:101330000E94B002882399F364E670E080E090E0B8
:101340000E94DF0E64EC71E083EA91E00E94F602F5
:10135000A2E0B1E0E4ECF1E080E090E031912D9189
:10136000321711F081E090E021E0EA3CF207B1F79A
:1013700090935B0180935A01019789F61091C10106
:101380001295107F1093C1010E943D06812B80931E
:10139000C10168E670E08EE192E00E943F0C62E0DD
:1013A00070E08EE192E00E942D036091C1018EE118
:1013B00092E00E94DC0B8EE192E00E94540C0E94AD
:1013C00064078091660190916701489724F010921C
:1013D0006701109266018091660190916701BE01DC
:1013E0000E943514262F6093BF017093C001909323
:1013F000BE018093BD0145E451E065E170E0822FBC
:101400000E94F20545E451E06BE170E08091BD017E
:101410000E94F2050E948A0582CF80915801909126
:101420005901AEE0B1E0E4ECF1E031912D913217D9
:1014300011F080E090E021E0EA3CF207B1F79093F0
:10144000590180935801019719F50E94C20549E19D
:1014500051E060E070E080E00E94F20549E151E077
:1014600066E070E081E00E94F20549E151E06BE046
:1014700070E082E00E94F20584E28093DD0145E4A1
:1014800051E06BE170E080E00E94F2050E948A0565
:10149000CAE0D0E08091580190915901019709F07C
:1014A0006DC083EA91E00E94B002882399F364E65C
:1014B00070E080E090E00E94DF0E64EC71E083EA6F
:1014C00091E00E94F602A2E0B1E0E4ECF1E080E0FD
:1014D00090E031912D91321711F081E090E021E000
:1014E000EA3CF207B1F790935901809358010197B4
:1014F00089F61091C1011295107F1093C1010E94CD
:101500003D06812B8093C10168E670E08EE192E098
:101510000E943F0C61E070E08EE192E00E942D039A
:101520006091C1018EE192E00E94DC0B8EE192E0BD
:101530000E94540C0E94640780916401909165019F
:10154000BE010E943514262F6093BB017093BC012D
:101550009093BA018093B90145E451E065E170E0F0
:10156000822F0E94F20545E451E06BE170E080912A
:10157000B9010E94F2050E948A058CCF8091560124
:1015800090915701A8E0B1E0E4ECF1E031912D91A8
:10159000321711F080E090E021E0EA3CF207B1F769
:1015A0009093570180935601019719F50E94C20547
:1015B00046E051E060E070E080E00E94F20546E025
:1015C00051E066E070E081E00E94F20546E051E003
:1015D0006BE070E082E00E94F20584E28093DD011E
:1015E00045E451E06BE170E080E00E94F2050E946A
:1015F0008A05CAE0D0E08091560190915701019789
:1016000009F06DC083EA91E00E94B002882399F34B
:1016100064E670E080E090E00E94DF0E64EC71E030
:1016200083EA91E00E94F602A2E0B1E0E4ECF1E08E
:1016300080E090E031912D91321711F081E090E03F
:1016400021E0EA3CF207B1F79093570180935601ED
:10165000019789F61091C1011295107F1093C10175
:101660000E943D06812B8093C10168E670E08EE107
:1016700092E00E943F0C60E070E08EE192E00E94F8
:101680002D036091C1018EE192E00E94DC0B8EE19E
:1016900092E00E94540C0E94640780911C02909179
:1016A0001D02BE010E943514262F6093B70170936E
:1016B000B8019093B6018093B50145E451E065E12E
:1016C00070E0822F0E94F20545E451E06BE170E08A
:1016D0008091B5010E94F2050E948A058CCF81E0BD
:1016E00090E090935B0180935A019093590180930D
:1016F000580190935701809356011092C101DF91D8
:10170000CF911F910F91089580914E0290E020910A
:101710004F02821B9109089520914F0280914E0241
:10172000281750F4E22FF0E0E05BFD4F808190E05D
:101730002F5F20934F0208958FEF9FEF0895E09160
:101740004F0280914E02E81730F4F0E0E05BFD4F6D
:10175000808190E008958FEF9FEF08950895CF92D4
:10176000DF92EF92FF920F931F93CF93DF937C0151
:10177000CB018A0120912A02222389F0EB016B011F
:10178000C40ED51ECC15DD0569F06991D701ED9128
:10179000FC910190F081E02DC7010995F3CF642FF2
:1017A0000E94100DC801DF91CF911F910F91FF9002
:1017B000EF90DF90CF900895CF93DF931F92CDB736
:1017C000DEB7698320912A022223D1F020912B02D7
:1017D000203240F021E030E0FC013383228380E0BE
:1017E00090E015C080912C02E82FF0E0E35DFD4F02
:1017F000998190838F5F80932C0280932B0205C088
:1018000061E0CE0101960E94100D81E090E00F9002
:10181000DF91CF910895FC011382128248EE53E0CC
:1018200060E070E044835583668377838DE691E0C2
:1018300091838083089510924F0210924E0210926D
:101840002C0210922B020C945B0C862F413208F074
:1018500040E260E572E00E94790C10924F028093A2
:101860004E02089521E00C94250C81E080932A0219
:1018700060934D0210922C0210922B0208950C944A
:10188000350C0F93062F21E040912B026DE272E0A0
:1018900080914D020E94BD0C10922C0210922B02DE
:1018A00010922A020F91089561E00C94410C8EE190
:1018B00092E00C940B0C1092DD0281E08093DB022D
:1018C0001092DA0261E082E10E94C10F61E083E1DF
:1018D0000E94C10FE9EBF0E080818E7F80838081E0
:1018E0008D7F808388E48093B80085E48093BC007A
:1018F0000895413208F03FC09091DD029111FCCF74
:1019000091E09093DD022093DB022FEF2093700291
:101910001092B502240F2093B4029093DC029091B0
:10192000DC02880F892B8093DC028091DA028130FF
:1019300041F41092DA028091DC028093BB0085ECC6
:1019400001C085EE8093BC008091DD028130E1F31F
:101950008091B502841710F44091B50226EB32E075
:10196000FB01D9018A2F821B841718F48D91819372
:10197000F9CF842F089580E008950F93413208F045
:1019800046C09091DD029111FCCF92E09093DD0270
:101990000093DB029FEF909370021092B502409388
:1019A000B402FB0166EB72E0DB019A2F961B9417E1
:1019B00018F491919D93F9CF1092DC029091DC0282
:1019C000880F892B8093DC028091DA02813041F408
:1019D0001092DA028091DC028093BB0085EC01C09A
:1019E00085EE8093BC00222321F08091DD028230BD
:1019F000E1F3809170028F3F61F08091700280323C
:101A000051F080917002803341F483E007C081E09F
:101A100005C080E003C082E001C084E00F9108951A
:101A2000613298F42091DD02243089F460939202AF
:101A3000FC0184E992E0DC012A2F281B261718F408
:101A400021912D93F9CF80E0089581E0089582E0FF
:101A5000089585ED8093BC008091BC0084FDFCCF8F
:101A60001092DD02089585EC8093BC001092DD0297
:101A700008951F920F920FB60F9211242F933F9348
:101A80004F935F936F937F938F939F93AF93BF9386
:101A9000EF93FF938091B900887F803609F49CC052
:101AA00068F5883209F45BC090F4803109F454C0C1
:101AB00038F4882309F4F5C0883009F44DC0F5C026
:101AC000883109F44CC0803209F45DC0EEC0803426
:101AD00009F468C048F4803309F455C0883309F02C
:101AE000E4C080937002A8C0803509F44FC08835E7
:101AF00009F45DC0883409F0D8C0D5C0883909F42C
:101B0000C6C0A8F4883709F467C038F4883609F4E9
:101B100063C0803709F460C0C8C0883809F4B7C012
:101B2000803909F45FC0803809F0BFC05BC0803BDA
:101B300009F485C038F4803A09F466C0883A09F49B
:101B40007EC0B3C0803C09F4A6C0883C09F4A3C0A1
:101B5000883B09F489C0A9C08091DC0210C0909133
:101B6000B5028091B402981770F5E091B50281E05A
:101B70008E0F8093B502F0E0EA54FD4F8081809390
:101B8000BB0085EC85C0809370028DC0E091B502EA
:101B900081E08E0F8093B5028091BB00F0E0EA54A3
:101BA000FD4F80839091B5028091B4026DC0E091A9
:101BB000B50281E08E0F8093B5028091BB00F0E00A
:101BC000EA54FD4F80838091DB0281116CC081E07B
:101BD0008093DA0284EA60C083E08093DD02109291
:101BE0007102CFCF80917102803208F050C0E09135
:101BF000710281E08E0F809371028091BB00F0E052
:101C0000EE58FD4F8083BDCF80917102803230F459
:101C1000E0917102F0E0EE58FD4F10820E94290D14
:101C20006091710270E0E091D602F091D70282E7F4
:101C300092E00995109271020E94330D36C084E043
:101C40008093DD021092930210929202E091D802EA
:101C5000F091D902099580919202811105C081E02D
:101C60008093920210929402E091930281E08E0F91
:101C700080939302F0E0EC56FD4F80818093BB008F
:101C80009091930280919202981708F47ACF85E898
:101C90008093BC000AC085EC8093BC001092DD02EA
:101CA00004C0109270020E94290DFF91EF91BF9124
:101CB000AF919F918F917F916F915F914F913F91E4
:101CC0002F910F900FBE0F901F9018951F920F929B
:101CD0000FB60F9211242F933F938F939F93AF933F
:101CE000BF938091DF029091E002A091E102B09158
:101CF000E2023091DE0223E0230F2D3720F401961B
:101D0000A11DB11D05C026E8230F0296A11DB11D1E
:101D10002093DE028093DF029093E002A093E10221
:101D2000B093E2028091E3029091E402A091E50277
:101D3000B091E6020196A11DB11D8093E30290933C
:101D4000E402A093E502B093E602BF91AF919F91A8
:101D50008F913F912F910F900FBE0F901F9018956C
:101D60002FB7F8946091DF027091E0028091E10258
:101D70009091E2022FBF08953FB7F8948091E3025B
:101D80009091E402A091E502B091E60226B5A89BED
:101D900005C02F3F19F00196A11DB11D3FBF662759
:101DA000782F892F9A2F620F711D811D911D42E09E
:101DB000660F771F881F991F4A95D1F70895CF9214
:101DC000DF92EF92FF92CF93DF936B017C010E9431
:101DD000BC0EEB01C114D104E104F10489F00E94AE
:101DE00081120E94BC0E6C1B7D0B683E734090F309
:101DF00081E0C81AD108E108F108C851DC4FEACFE8
:101E0000DF91CF91FF90EF90DF90CF90089578947D
:101E100084B5826084BD84B5816084BD85B58260EF
:101E200085BD85B5816085BDEEE6F0E0808181608D
:101E30008083E1E8F0E0108280818260808380818D
:101E400081608083E0E8F0E0808181608083E1EB65
:101E5000F0E0808184608083E0EBF0E0808181604D
:101E60008083EAE7F0E08081846080838081826003
:101E700080838081816080838081806880831092EC
:101E8000C10008958E3008F08E508770209168014F
:101E900090E4299F90011124822B80937C008091F3
:101EA0007A00806480937A0080917A0086FDFCCF6E
:101EB000809178002091790090E0922B08958330F2
:101EC00081F028F4813099F08230A1F008958730B4
:101ED000A9F08830B9F08430D1F4809180008F7DF2
:101EE00003C0809180008F7780938000089584B52F
:101EF0008F7702C084B58F7D84BD08958091B00036
:101F00008F7703C08091B0008F7D8093B0000895DB
:101F1000CF93DF9390E0FC01EA5FFD4F2491FC0139
:101F2000E65EFD4F8491882349F190E0880F991F68
:101F3000FC01EE5BFD4FA591B491885C9D4FFC01C7
:101F4000C591D4919FB7611108C0F8948C912095E8
:101F500082238C93888182230AC0623051F4F894E2
:101F60008C91322F309583238C938881822B8883A8
:101F700004C0F8948C91822B8C939FBFDF91CF91FA
:101F800008950F931F93CF93DF931F92CDB7DEB7C2
:101F9000282F30E0F901EE50FE4F8491F901EA5FFD
:101FA000FD4F1491F901E65EFD4F04910023C9F045
:101FB000882321F069830E945F0F6981E02FF0E0A0
:101FC000EE0FFF1FE85CFD4FA591B4919FB7F89409
:101FD0008C91611103C01095812301C0812B8C93DA
:101FE0009FBF0F90DF91CF911F910F910895CF93D5
:101FF000DF93282F30E0F901EE50FE4F8491F90174
:10200000EA5FFD4FD491F901E65EFD4FC491CC2308
:1020100091F081110E945F0FEC2FF0E0EE0FFF1F97
:10202000E25DFD4FA591B4912C912D2381E090E0CC
:1020300021F480E002C080E090E0DF91CF9108952C
:10204000BF92CF92DF92EF92FF920F931F93CF93A5
:10205000DF93C82ED62EB42EC7E0D0E0022F10E0BA
:1020600087E0E82EF12CB1100AC0F701EC1BFD0B44
:10207000B80102C075956795EA95E2F707C0B80107
:102080000C2E02C0759567950A94E2F76170772768
:102090008C2D0E94C10F61E08D2D0E94C10F60E068
:1020A0008D2D0E94C10F2197F0F6DF91CF911F91E6
:1020B0000F91FF90EF90DF90CF90BF900895FC01BB
:1020C000818D228D90E0805C9F4F821B91098F73E0
:1020D00099270895FC01918D828D981731F0828D9A
:1020E000E80FF11D858D90E008958FEF9FEF089523
:1020F000FC01918D828D981761F0828DDF01A80F10
:10210000B11D5D968C91928D9F5F9F73928F90E031
:1021100008958FEF9FEF08958CEF91E1892B49F09F
:1021200080E090E0892B29F00E94FC1181110C9431
:1021300000000895FC01848DDF01A80FB11DA35A92
:10214000BF4F2C91848D90E001968F739927848FD7
:10215000A689B7892C93A089B1898C9180648C93CE
:10216000938D848D981306C00288F389E02D8081B9
:102170008F7D80830895CF93DF93EC01888D882332
:10218000C9F0EA89FB89808185FD05C0A889B989E4
:102190008C9186FD0FC00FB607FCF5CF808185FFBF
:1021A000F2CFA889B9898C9185FFEDCFCE010E942D
:1021B0009A10E7CFDF91CF910895CF92DF92FF92EF
:1021C0000F931F93CF93DF931F92CDB7DEB76C01B0
:1021D00081E0D60158968C9358975B969C915B97BB
:1021E0005C968C915C97981307C05096ED91FC918A
:1021F0005197808185FD2EC0F601038D10E00F5FA1
:102200001F4F0F731127F02EF601848DF81211C0A5
:102210000FB607FCF9CFD6015096ED91FC9151977E
:10222000808185FFF1CFC60169830E949A10698180
:10223000EBCF838DE80FF11DE35AFF4F6083D6018A
:102240005B960C935B975296ED91FC91539780812E
:1022500080620CC0D6015696ED91FC915797608331
:102260005096ED91FC91519780818064808381E04C
:1022700090E00F90DF91CF911F910F91FF90DF9031
:10228000CF900895BF92CF92DF92EF92FF92CF93BB
:10229000DF93EC016A017B01B22EE889F98982E0C3
:1022A0008083411581EE580761057105A1F060E05A
:1022B00079E08DE390E0A70196010E944914215036
:1022C00031094109510956954795379527952115AB
:1022D00080E1380798F0E889F989108260E874E8AD
:1022E0008EE190E0A70196010E9449142150310926
:1022F000410951095695479537952795EC85FD85F8
:102300003083EE85FF852083188EEC89FD89B082AD
:10231000EA89FB89808180618083EA89FB898081E9
:1023200088608083EA89FB89808180688083EA896C
:10233000FB8980818F7D8083DF91CF91FF90EF902B
:10234000DF90CF90BF9008951F920F920FB60F921B
:1023500011242F938F939F93EF93FF93E091F702B4
:10236000F091F8028081E091FD02F091FE0282FD81
:1023700012C09081809100038F5F8F7320910103C1
:10238000821751F0E0910003F0E0E951FD4F958F85
:102390008093000301C08081FF91EF919F918F9105
:1023A0002F910F900FBE0F901F9018951F920F92B4
:1023B0000FB60F9211242F933F934F935F936F9318
:1023C0007F938F939F93AF93BF93EF93FF9387EE8A
:1023D00092E00E949A10FF91EF91BF91AF919F916F
:1023E0008F917F916F915F914F913F912F910F90BE
:1023F0000FBE0F901F90189587EE92E00E945F101D
:1024000021E0892B09F420E0822F08951092EA023E
:102410001092E90288EE93E0A0E0B0E08093EB0236
:102420009093EC02A093ED02B093EE028DE791E061
:102430009093E8028093E70285EC90E09093F40299
:102440008093F30284EC90E09093F6028093F5027F
:1024500080EC90E09093F8028093F70281EC90E09A
:102460009093FA028093F90282EC90E09093FC0240
:102470008093FB0286EC90E09093FE028093FD0235
:1024800010920003109201031092020310920303B2
:10249000089508950E94070F0E9449120E942C0877
:1024A000CCE8D0E10E9464082097E1F30E948C10F0
:1024B000F9CFCF92DF92EF92FF920F931F93CF93BA
:1024C000DF936C017A01EB01E60EF71E00E010E0ED
:1024D000CE15DF0561F06991D601ED91FC91019077
:1024E000F081E02DC6010995080F191FF1CFC80131
:1024F000DF91CF911F910F91FF90EF90DF90CF90E0
:10250000089508955058BB27AA270ED00DC1FED0BC
:1025100030F003D120F031F49F3F11F41EF4F3C0EA
:102520000EF4E095E7FBE9C0E92F0FD180F3BA176D
:10253000620773078407950718F071F49EF527C1A9
:102540000EF4E0950B2EBA2FA02D0B01B9019001CE
:102550000C01CA01A0011124FF27591B99F0593F12
:1025600050F4503E68F11A16F040A22F232F342F5A
:102570004427585FF3CF469537952795A795F040A8
:102580005395C9F77EF41F16BA0B620B730B840BBD
:10259000BAF09150A1F0FF0FBB1F661F771F881F75
:1025A000C2F70EC0BA0F621F731F841F48F48795CD
:1025B00077956795B795F7959E3F08F0B3CF9395BC
:1025C000880F08F09927EE0F97958795089571D099
:1025D00008F481E0089504D06894B111D9C0089539
:1025E000BCD088F09F5790F0B92F9927B751A0F031
:1025F000D1F0660F771F881F991F1AF0BA95C9F797
:1026000012C0B13081F0C3D0B1E00895C0C0672FCF
:10261000782F8827B85F39F0B93FCCF38695779546
:102620006795B395D9F73EF490958095709561952F
:102630007F4F8F4F9F4F0895E89409C097FB3EF45A
:1026400090958095709561957F4F8F4F9F4F9923FF
:10265000A9F0F92F96E9BB279395F695879577957D
:102660006795B795F111F8CFFAF4BB0F11F460FF3D
:102670001BC06F5F7F4F8F4F9F4F16C0882311F095
:1026800096E911C0772321F09EE8872F762F05C0A9
:10269000662371F096E8862F70E060E02AF09A9544
:1026A000660F771F881FDAF7880F9695879597F939
:1026B0000895990F0008550FAA0BE0E8FEEF1616D3
:1026C0001706E807F907C0F012161306E407F50726
:1026D00098F0621B730B840B950B39F40A2661F09A
:1026E000232B242B252B21F408950A2609F4A1403D
:1026F000A6958FEF811D811D089597F99F6780E84A
:1027000070E060E008959FEF80EC089500240A9443
:102710001616170618060906089500240A941216BC
:102720001306140605060895092E0394000C11F4EF
:10273000882352F0BB0F40F4BF2B11F460FF04C09C
:102740006F5F7F4F8F4F9F4F089557FD9058440FF5
:10275000551F59F05F3F71F04795880F97FB991F00
:1027600061F09F3F79F087950895121613061406BD
:10277000551FF2CF4695F1DF08C01616170618064A
:10278000991FF1CF86957105610508940895E89425
:10279000BB2766277727CB0197F908958ADF08F4CE
:1027A0008FEF08950BD0C0CFB1DF28F0B6DF18F05F
:1027B000952309F0A2CFA7CF1124EACFC6DFA0F35B
:1027C000959FD1F3950F50E0551F629FF001729FC6
:1027D000BB27F00DB11D639FAA27F00DB11DAA1FE5
:1027E000649F6627B00DA11D661F829F2227B00D32
:1027F000A11D621F739FB00DA11D621F839FA00DBD
:10280000611D221F749F3327A00D611D231F849F0C
:10281000600D211D822F762F6A2F11249F57504063
:102820008AF0E1F088234AF0EE0FFF1FBB1F661FFE
:10283000771F881F91505040A9F79E3F510570F0B7
:102840005CCFA6CF5F3FECF3983EDCF3869577959F
:102850006795B795F795E7959F5FC1F7FE2B880FB2
:10286000911D9695879597F9089597FB072E16F475
:10287000009407D077FD09D00E946B1407FC05D0A7
:102880003EF4909581959F4F0895709561957F4F87
:102890000895A1E21A2EAA1BBB1BFD010DC0AA1FA1
:1028A000BB1FEE1FFF1FA217B307E407F50720F0B9
:1028B000A21BB30BE40BF50B661F771F881F991F34
:1028C0001A9469F760957095809590959B01AC017D
:1028D000BD01CF010895AA1BBB1B51E107C0AA1F70
:1028E000BB1FA617B70710F0A61BB70B881F991FB1
:1028F0005A95A9F780959095BC01CD010895EE0FEA
:0E290000FF1F0590F491E02D0994F894FFCF8D
:10290E008001805141000151D41441005514C1453C
:10291E0041004045855441000454D150410050506F
:10292E00840041000500D400410055009000410094
:10293E001100804041000140D04041005140944080
:10294E0041001540854041000440D54041005440AF
:10295E0091404100104001000100010006001400EA
:10296E000800E007150013000100000000DC0BAFAB
:10297E000B840B8C0B9F0BAE0B00000000DD10596F
:0A298E00125F1078106A10BB1000F1
:00000001FF
